:100000000C9434000C9451000C9451000C94510049
:100010000C9451000C9451000C9451000C9451001C
:100020000C9451000C9451000C9451000C9451000C
:100030000C9451000C9451000C9451000C945100FC
:100040000C9451000C9451000C9451000C945100EC
:100050000C9451000C9451000C9451000C945100DC
:100060000C9451000C94510011241FBECFEFD8E026
:10007000DEBFCDBF11E0A0E0B1E0E8E0FDE002C0EE
:1000800005900D92AA30B107D9F721E0AAE0B1E0BE
:1000900001C01D92AE30B207E1F70E940C010C9432
:1000A00082060C940000E9EBF0E080818C7F808375
:1000B00088E48093B800089580930A01ECEBF0E0A7
:1000C0008081846A80838091BC008823E4F78091DA
:1000D000B900887F883011F0803111F48FEF0895D6
:1000E0008EEF089590E0880F991F90910A01892B57
:1000F0008093BB00ECEBF0E080818F7D808380817A
:10010000806880838091BC008823E4F780910A0195
:10011000811107C08091B900887F883159F48FEF31
:100120000895813049F48091B900887F803431F49A
:100130008FEF08958EEF089580E008958EEF089573
:100140008093BB00ECEBF0E080818068808380913D
:10015000BC008823E4F78091B900887F883211F4CD
:100160008FEF08958EEF0895ECEBF0E080818069C9
:1001700080838091BC0084FFFCCF0895E0EBF0E029
:10018000808183608083808180688083E1EBF0E000
:100190008081846080838AB18C638AB908958BB131
:1001A0008B7D8BB98BB188618BB92FEF89EF90E094
:1001B000215080409040E1F700C000008BB18B7E61
:1001C0008BB98BB188628BB92FEF89EF90E021500A
:1001D00080409040E1F700C000008BB1877E8BB972
:1001E0008BB184628BB92FEF89EF90E02150804072
:1001F0009040E1F700C000008BB1877D8BB98BB1D7
:1002000084618BB92FEF89EF90E0215080409040BE
:10021000E1F700C000000895CF93DF93CDB7DEB7BC
:10022000A8970FB6F894DEBF0FBECDBF1A82198211
:10023000FE01339682E1DF011D928A95E9F70E9463
:100240001C040E94BE0062E370E080E00E94FC0299
:100250008FE19EE40197F1F700C0000040E050E01C
:10026000BA0180E00E94820340E050E0BA0181E0E0
:100270000E94820340E050E0BA0182E00E948203C3
:1002800040E050E0BA0183E00E94820340E050E089
:10029000BA0184E00E94820340E050E0BA0188E0A5
:1002A0000E94820340E050E0BA0189E00E9482038C
:1002B00040E050E0BA018AE00E94820340E050E052
:1002C000BA018BE00E94820340E050E0BA018CE06A
:1002D0000E9482039FEFA3EDB0E39150A040B04095
:1002E000E1F700C000000E943404182F898360E009
:1002F00071E0CE0101960E947906892B39F1CDC0BB
:10030000612F012E000C770B880B990B0E9457056B
:10031000AB01BC0180E00E94820340E050E060E756
:1003200071EC81E00E94820340E050E060E771ECF4
:1003300082E00E9482032FEF81EE94E02150804002
:100340009040E1F700C000001D5F01C011EF1031C7
:10035000BCF211EF1EC0612F012E000C770B880B31
:10036000990B0E945705AB01BC0181E00E948203FA
:1003700040E050E060E771EC82E00E948203AFEF62
:10038000B1EE24E0A150B0402040E1F700C00000F1
:100390001D5F103104F311EF17C0612F012E000C07
:1003A000770B880B990B0E945705AB01BC0182E0CB
:1003B0000E9482038FEF91EEA4E081509040A04014
:1003C000E1F700C000001D5F10313CF311EF25C0C4
:1003D000612F012E000C770B880B990B0E9457059B
:1003E000AB01BC0188E00E94820340E050E060E77E
:1003F00071EC89E00E94820340E050E060E771EC1C
:100400008AE00E948203BFEF21EE84E0B1502040D9
:100410008040E1F700C000001D5F1031CCF211EF09
:100420001EC0612F012E000C770B880B990B0E94C8
:100430005705AB01BC0189E00E94820340E050E017
:1004400060E771EC8AE00E9482039FEFA1EEB4E0C6
:100450009150A040B040E1F700C000001D5F103196
:1004600004F311EF17C0612F012E000C770B880BDE
:10047000990B0E945705AB01BC018AE00E948203E0
:100480002FEF81EE94E0215080409040E1F700C0D2
:1004900000001D5F10313CF326CF62E071E0CE0119
:1004A00001960E947906892B39F167C0612F012ED0
:1004B000000C770B880B990B0E945705AB01BC0110
:1004C00080E00E94820340E050E060E771E481E058
:1004D0000E94820340E050E060E771E482E00E9405
:1004E0008203AFEFB1EE24E0A150B0402040E1F72D
:1004F00000C00000135001C01FE0113FBCF61FE018
:100500001EC0612F012E000C770B880B990B0E94E7
:100510005705AB01BC0181E00E94820340E050E03E
:1005200060E771E482E00E9482038FEF91EEA4E025
:1005300081509040A040E1F700C000001350113FEF
:1005400004F71FE017C0612F012E000C770B880BFA
:10055000990B0E945705AB01BC0182E00E94820307
:10056000BFEF21EE84E0B15020408040E1F700C0B1
:1005700000001350113F3CF7B6CE64E071E0CE01AD
:1005800001960E947906892BB9F40E94CF001E8A39
:100590001D8AFE01779682E1DF011D928A95E9F7B7
:1005A0000E9434048D8B66E071E0CE0145960E9476
:1005B0007906892B51F797CE68E071E0CE0101965C
:1005C0000E947906892BA1F4812F0E943B048CE0C4
:1005D00090E090938B0080938A00BFEF23EC89E03A
:1005E000B15020408040E1F700C0000015B87BCE3C
:1005F000812F0E943B0477CEFF920F931F93CF93DE
:10060000DF931F92CDB7DEB7F82E8B0170930D01EB
:1006100060930C0180930B010E94530080E00E94C4
:100620005C0080E48F0D0E94720080E00E94A000B8
:1006300081E30E94A0000E94B40089EF90E001973E
:10064000F1F700C00000B80180E090E00E9455057D
:1006500020E030E040E855E40E940C062FE135E848
:100660004BE65FE30E940C069B01AC0160E27CEB71
:100670008EEB9BE40E94B40420E030E040E85FE3AE
:100680000E9442040E942605698380E00E945C006B
:1006900080E40E9472008EEF0E94A00089810E9477
:1006A000A0000E94B40089EF90E00197F1F700C02C
:1006B000000080E00E945C0080E40E94720080E004
:1006C0000E94A00081EA0E94A0000E94B40089EF6D
:1006D00090E00197F1F700C0000080E00E945C000C
:1006E00080E40E94720081E00E94A00084E00E94E9
:1006F000A0000E94B4000F90DF91CF911F910F9145
:10070000FF9008958F929F92AF92BF92CF92DF9207
:10071000EF92FF92CF93C82F6A017B0120E030E077
:1007200044EB52E4C701B6010E94070618165CF0BC
:1007300020E030E044EB52ECC701B6010E94AF0468
:10074000882354F011C00F2EC12CD12CF4EBEF2EC6
:10075000F2E4FF2EF02D08C00F2EC12CD12CF4EBAB
:10076000EF2EF2ECFF2EF02D25E535E545ED50E4BA
:10077000C701B6010E940C0620E030E84BEB54E4C0
:100780000E9443040E9426054B015C0160910C010C
:1007900070910D0180E090E00E9455059B01AC0135
:1007A00060E074E284E799E40E94B4040E942605A4
:1007B0006B017C01B40180E090E00E9455054B0183
:1007C0005C01B60180E090E00E9455059B01AC0100
:1007D000C501B4010E94B40420E030E040E855E4D3
:1007E0000E940C060E942605E62EF72E80E00E944D
:1007F0005C0080910B01805C0E9472008C2F880F3E
:10080000880F8A5F0E94A00080E00E94A00080E024
:100810000E94A0008E2D0E94A0008F2D0E94A0009B
:100820000E94B400CF91FF90EF90DF90CF90BF90E7
:10083000AF909F908F900895E0ECF0E0808182600F
:1008400080831092C5008FEC8093C400E2ECF0E04E
:10085000808186608083E1ECF0E08081806180832C
:1008600080818860808308958091C0008823E4F7A8
:100870008091C60008959091C00095FFFCCF8093B1
:10088000C60008955058BB27AA270E945A040C940A
:10089000CD050E94BF0538F00E94C60520F039F44E
:1008A0009F3F19F426F40C94BC050EF4E095E7FB89
:1008B0000C94B605E92F0E94DE0558F3BA176207BB
:1008C00073078407950720F079F4A6F50C940006C9
:1008D0000EF4E0950B2EBA2FA02D0B01B90190015B
:1008E0000C01CA01A0011124FF27591B99F0593F9F
:1008F00050F4503E68F11A16F040A22F232F342FE7
:100900004427585FF3CF469537952795A795F04034
:100910005395C9F77EF41F16BA0B620B730B840B49
:10092000BAF09150A1F0FF0FBB1F661F771F881F01
:10093000C2F70EC0BA0F621F731F841F48F4879559
:1009400077956795B795F7959E3F08F0B0CF93954B
:10095000880F08F09927EE0F9795879508950E94C4
:10096000920508F481E008950E94C8040C94CD0516
:100970000E94C60558F00E94BF0540F029F45F3F71
:1009800029F00C94B60551110C9401060C94BC0589
:100990000E94DE0568F39923B1F3552391F3951B6B
:1009A000550BBB27AA2762177307840738F09F5F90
:1009B0005F4F220F331F441FAA1FA9F335D00E2EFD
:1009C0003AF0E0E832D091505040E695001CCAF76A
:1009D0002BD0FE2F29D0660F771F881FBB1F26172D
:1009E00037074807AB07B0E809F0BB0B802DBF0104
:1009F000FF2793585F4F3AF09E3F510578F00C94D3
:100A0000B6050C9401065F3FE4F3983ED4F3869557
:100A100077956795B795F7959F5FC9F7880F911DF3
:100A20009695879597F90895E1E0660F771F881FDF
:100A3000BB1F621773078407BA0720F0621B730B92
:100A4000840BBA0BEE1F88F7E09508950E94E60527
:100A500088F09F5798F0B92F9927B751B0F0E1F07F
:100A6000660F771F881F991F1AF0BA95C9F714C02F
:100A7000B13091F00E940006B1E008950C94000698
:100A8000672F782F8827B85F39F0B93FCCF3869568
:100A900077956795B395D9F73EF4909580957095C5
:100AA00061957F4F8F4F9F4F0895E89409C097FB42
:100AB0003EF490958095709561957F4F8F4F9F4F35
:100AC0009923A9F0F92F96E9BB279395F695879579
:100AD00077956795B795F111F8CFFAF4BB0F11F43C
:100AE00060FF1BC06F5F7F4F8F4F9F4F16C08823E3
:100AF00011F096E911C0772321F09EE8872F762F19
:100B000005C0662371F096E8862F70E060E02AF059
:100B10009A95660F771F881FDAF7880F9695879545
:100B200097F90895990F0008550FAA0BE0E8FEEF1A
:100B300016161706E807F907C0F012161306E407A1
:100B4000F50798F0621B730B840B950B39F40A269A
:100B500061F0232B242B252B21F408950A2609F478
:100B6000A140A6958FEF811D811D089597F99F677C
:100B700080E870E060E008959FEF80EC0895002425
:100B80000A941616170618060906089500240A94F2
:100B900012161306140605060895092E0394000C78
:100BA00011F4882352F0BB0F40F4BF2B11F460FF07
:100BB00004C06F5F7F4F8F4F9F4F089557FD905830
:100BC000440F551F59F05F3F71F04795880F97FB11
:100BD000991F61F09F3F79F08795089512161306CB
:100BE0001406551FF2CF4695F1DF08C016161706FA
:100BF0001806991FF1CF869571056105089408952F
:100C0000E894BB2766277727CB0197F908950E94C0
:100C1000920508F48FEF08950E941F060C94CD05ED
:100C20000E94BF0538F00E94C60520F0952311F000
:100C30000C94B6050C94BC0511240C9401060E947A
:100C4000DE0570F3959FC1F3950F50E0551F629F2D
:100C5000F001729FBB27F00DB11D639FAA27F00D15
:100C6000B11DAA1F649F6627B00DA11D661F829F3C
:100C70002227B00DA11D621F739FB00DA11D621F21
:100C8000839FA00D611D221F749F3327A00D611D3E
:100C9000231F849F600D211D822F762F6A2F112420
:100CA0009F5750409AF0F1F088234AF0EE0FFF1F53
:100CB000BB1F661F771F881F91505040A9F79E3FAA
:100CC000510580F00C94B6050C9401065F3FE4F3E7
:100CD000983ED4F3869577956795B795F795E79500
:100CE0009F5FC1F7FE2B880F911D9695879597F909
:100CF0000895FB01DC018D91019080190110D9F359
:080D0000990B0895F894FFCF50
:0A0D080031003200330034007300A4
:00000001FF
